:020000040000FA
:10000000D0660002450200004D0200004F020000D1
:1000100000000000000000000000000000000000E0
:10002000000000000000000000000000A10100002E
:100030000000000000000000E5010000690E000063
:100040005902000059020000590200005902000044
:100050005902000059020000590200005902000034
:100060005902000059020000590200005902000024
:100070005902000059020000590200005902000014
:10008000C10D000059020000590200005902000091
:1000900059020000590200005902000059020000F4
:1000A00059020000590200005902000059020000E4
:1000B00059020000590200005902000059020000D4
:1000C00059020000590200005902000059020000C4
:1000D00059020000590200005902000059020000B4
:1000E00059020000590200005902000059020000A4
:1000F00059020000590200005902000000F002F805
:1001000000F03EF80AA090E8000C82448344AAF173
:100110000107DA4501D100F033F8AFF2090EBAE871
:100120000F0013F0010F18BFFB1A43F0010318472B
:100130001816000038160000103A24BF78C878C19D
:10014000FAD8520724BF30C830C144BF04680C60DD
:10015000704700000023002400250026103A28BF25
:1001600078C1FBD8520728BF30C148BF0B60704729
:100170001FB59DE8030000F0BEF91FBD10B510BD0E
:1001800000F096FA1146FFF7F3FF00F0E3FE00F0EF
:10019000B4FA03B4FFF7F2FF03BC00F0C9FE00009D
:1001A000204B19680868B0E8F00F80F30988BFF3A6
:1001B0006F8F4FF0000080F311884EF00D0E7047E6
:1001C0000000000006480068006880F3088862B6F6
:1001D00061B6BFF34F8FBFF36F8F00DF00BF00BF6B
:1001E00008ED00E0EFF30980BFF36F8F0D4B1A6845
:1001F00020E9F00F106008B54FF0A00080F31188DF
:1002000001F07EF84FF0000080F31188BDE808404F
:1002100019680868B0E8F00F80F30988BFF36F8FA2
:10022000704700BF04000002EFF311804FF0A001FF
:1002300081F31188704780F311887047EFF30580D0
:10024000704700000848804708480047FEE7FEE77F
:10025000FEE7FEE7FEE7FEE7FEE70000044805498B
:10026000054A064B704700009D0E0000FD0000008F
:10027000D0630002D0660002D0640002D0640002A5
:1002800070B5064600F036F8056806F10B0020F060
:100290000704B4429CBF002070BD2B466A68BAB107
:1002A0001068A04210D304F1080188423CBF506896
:1002B000586007D35168101941601168091B01602B
:1002C00058601460101D70BD13465268002AE7D1B3
:1002D0002146284600F0FBF80028DED170BD02F070
:1002E000FF0343EA032242EA024200F06EB970477C
:1002F000704770470048704778630002FFFFFFFFB8
:1003000070B50446051FFFF7F5FF0068002C14BF09
:10031000446870BD002C18BFAC423CBF20466468E6
:10032000F8D301680A18AA4218BF456003D12A68A9
:1003300005461144016028684119A1421CBF6C6048
:1003400070BD6168696021680844286070BD53EA27
:10035000020C00F069802DE9F04B4FF00006002BF5
:100360001FBFB3FA83F503FA05F424FA05F65E40DD
:1003700012BF1643B2FA82F502FA05F4C5F1200560
:100380001EBF22FA05FC44EA0C04203556EA044C50
:100390004FEA144418BF641C4FF000084FF00009E6
:1003A000904271EB030C39D3002919BFB1FA81F7E0
:1003B00001FA07F6B0FA80F700FA07F6C7F120074E
:1003C0001EBF20FA07FC46EA0C062037B6FBF4FCF9
:1003D000A7EB0507103F07F01F0BCBF120060CFA27
:1003E0000BFB2CFA06F644BFB3460026202FA4BF11
:1003F0005E464FF0000B5BEA060C08BF4FF0010BA6
:1004000019EB0B09ABFB027C48EB0608C01B06FB93
:1004100002CC0BFB03CC71EB0C01C1E70B4602468F
:1004200041464846BDE8F08B13B54FF000004FF051
:100430000001AFF30080BDE81C407047032A40F282
:10044000308010F0030C00F0158011F8013BBCF176
:10045000020F624498BF11F801CB00F8013B38BF8E
:1004600011F8013BA2F1040298BF00F801CB38BF9C
:1004700000F8013B11F0030300F07380083AC0F06C
:10048000088051F8043B083A51F804CBA0E8081062
:10049000F5E7121D5CBF51F8043B40F8043BAFF395
:1004A0000080D20724BF11F8013B11F801CB48BFEF
:1004B00011F8012B24BF00F8013B00F801CB48BF25
:1004C00000F8012B7047704770477047704738B588
:1004D00004460A460020694600F0E5F8002808BFF7
:1004E00038BD02460099204600F094F8012038BD3E
:1004F000012000F0A9B8F8B5AFF300800546002050
:100500000C46102000BF0646A819A0420DD932465D
:100510006946002000F0C7F8070008BF00F094F813
:100520000098A04218BF0546C419FFF7E3FE056016
:100530000746F01D20F007004619284600F00AF88B
:10054000B44208BFF8BDA21B31463868BDE8F84088
:1005500000F060B800210160C0E901107047102070
:10056000704710B5203AC0F00B80B1E81850203A1F
:10057000A0E81850B1E81850A0E81850BFF4F5AF43
:100580005FEA027C24BFB1E81850A0E8185044BFCD
:1005900018C918C0BDE810405FEA827C24BF51F83A
:1005A000043B40F8043B08BF7047D20728BF31F82E
:1005B000023B48BF11F8012B28BF20F8023B48BF7F
:1005C00000F8012B70474FF000020429C0F01280A0
:1005D00010F0030C00F04180CCF1040CBCF1020FD0
:1005E00018BF00F8012BA8BF20F8022BA1EB0C01CB
:1005F00000F033B85FEAC17C24BF00F8012B00F89B
:10060000012B48BF00F8012B7047000000487047DD
:1006100070630002034640688C46002818BF884279
:100620003CBF03464068F8D318681844884207D096
:100630000CF1030020F00700001D411A521A014678
:10064000081D0A60FFF75CBE10B500F065F8BDE854
:10065000104000F05BB84FF0000200B5134694461E
:100660009646203922BFA0E80C50A0E80C50B1F10A
:100670002001BFF4F7AF090728BFA0E80C5048BF1E
:100680000CC05DF804EB890028BF40F8042B08BFBC
:10069000704748BF20F8022B11F0804F18BF00F8B8
:1006A000012B7047704710B500F036FC10BD704745
:1006B0007546FFF7ABFFAE4605006946534620F08E
:1006C0000700854618B020B5FFF7C8FDBDE82040FB
:1006D0004FF000064FF000074FF000084FF0000BFE
:1006E00021F00701AC46ACE8C009ACE8C009ACE8B1
:1006F000C009ACE8C0098D46704710B50446AFF399
:1007000000802046BDE81040FFF743BD002801D01F
:1007100000F00EBC7047000010B5012805D0002184
:1007200003A000F021F8012010BD09A1F8E70000A6
:1007300053494752544D454D3A204F7574206F66CA
:100740002068656170206D656D6F72790000000032
:100750003A2048656170206D656D6F727920636F16
:10076000727275707465640070B505460C460A2097
:1007700000E06D1C00F011F835B128780028F8D1A0
:1007800002E0641C00F009F814B120780028F8D1C8
:10079000BDE870400A20AFF3008008B569468DF8C7
:1007A00000000320ABBE08BD154810B58021416391
:1007B00081640D220021012000F0F7F900211222AE
:1007C000084600F0F2F900F0B5F8002100F05AF9FF
:1007D0000C4C204600F068FA206820F07C0040F0C5
:1007E000040020604FF4E131204600F097FA2068C1
:1007F00040F001002060606820F04000606010BDA3
:1008000000800F40000004402DE9F041FFF7CCFFCD
:100810004FF0E054204600F06BF90C4B0021DD1E38
:100820000122585C6E5C04EB800000F50050076804
:1008300002FA06F637430760585C6E5C04EB401022
:100840008255491C0329ECDBBDE8F081B716000096
:1008500010B503280BD2064A054C4FF0E053E41EB6
:10086000125C205C03EB421281F00101115410BDB7
:10087000B716000010B500F0E7F90B4C0120C4F8E2
:10088000A4000320012161F39F10C4F8A001C80552
:1008900000F0CCF9D4F8A40110F0010FFAD0012037
:1008A000C4F8CC0010BD00000040074070B50D201A
:1008B00000F030F80C2000F02DF80D24204600F058
:1008C00079F9204600F088F91D220A490A4800F00B
:1008D00033F9084D0024083D35F81410C8B2C1F3AF
:1008E0004122C90A01EB421100F048F9641C032CB3
:1008F000F2D370BDD416000000800F4010B5FFF792
:10090000D5FFFFF7B7FF02490120C1F8CC0010BDA9
:100910000040074006490122202803D351F8C83F70
:10092000203801E051F8C43F824013430B60704708
:10093000004007400448D0F8840010F0FF0F01D0B9
:1009400000F01EB800F002B800400740084900203F
:10095000D1F8801011F0FF0105D0012905D002293E
:1009600000D1044870470448704704480068704745
:1009700000400740D8AC0700001BB700AC160000D1
:100980000A490020D1F8841011F0FF0108D0012994
:1009900008D0022908D0032901D105480068704712
:1009A000FFF7D4BF00F028B800F02EB80040074091
:1009B000B016000000F03F02521C01FB02F070472D
:1009C00010F0030003D0012803D000207047024834
:1009D0007047024800687047001BB700AC16000063
:1009E00010B5FFF7A7FF0349D1F8C010B0FBF1F035
:1009F00010BD0000004007400248D0F8A000FFF7FB
:100A0000DFBF00000040074010B5FFF7F5FF0146CB
:100A10000348D0F89801BDE81040FFF7CBBF0000B5
:100A20000040074070B50E4DD5F8D040B4B1FFF787
:100A300081FFB0FBF4F0D5F82821002192B2D34316
:100A400013F0FF0F09D10902120A41EA10610002F6
:100A5000002302F58072FFF77AFC70BD002070BDA4
:100A6000004007400649042804D3001FC0B2C1F863
:100A70008400704741F8800F0020486070470000F4
:100A80000040074070B50E460446FFF753FF01468D
:100A9000B0FBF4F000B901200D4DC2B2C5F8D02072
:100AA00000227EB104FB101304FB00F2190E1802A1
:100AB0000023FFF74CFC0006000C40F0FF00C5F8D7
:100AC000280101E0C5F82821BDE87040FFF7AABF62
:100AD000004007400549D1F8242100F0030022F42A
:100AE000405242EA0030C1F82401704700400740FC
:100AF00010B50E20FFF70EFF0F20FFF70BFF1020A1
:100B0000FFF708FF0B20FFF705FF0B24204600F03E
:100B100051F82046BDE8104000F05EB800EB8100BF
:100B2000012100F50050914002680BB10A4300E03A
:100B30008A4302607047000070B500230BE000BFDD
:100B400051F82340E6B2C4F3072500EBC616240C87
:100B500046F825405B1C9342F2D370BD10B5C0F33C
:100B600083301C300446FFF7D5FE204600F022F803
:100B70002046BDE8104000F02FB800000207520EDA
:100B800000098300054810B503441868FF24944009
:100B9000A04391400143196010BD00000080034054
:100BA00002EB4111C9B2FFF7E9BF02EB4111C9B233
:100BB000FFF7E4BF074A0121202805D3936C2038B2
:100BC00081400B4393647047536C81400B435364E3
:100BD0007047000000400740074A0121202805D344
:100BE000936C203881408B4393647047536C8140F1
:100BF0008B435364704700000040074010B5044623
:100C0000FFF7D8FF2046BDE81040FFF7E5BF000022
:100C1000044AD2F80812044B194018400843C2F89D
:100C2000080270470040074078FFFF01044AD2F8ED
:100C30000812044B194018408143C2F8081270474B
:100C40000040074078FFFF0138B54FF40010FFF770
:100C5000EDFF00204FF400710090401C009088428E
:100C6000FBDB104C0120C4F8A00085052846FFF7E7
:100C7000CFFF0521022060F39F11C4F89811284688
:100C8000FFF7D4FFD4F89C0110F0010FFAD0012037
:100C9000C4F8C0000220FFF71DFFBDE83840062061
:100CA000FFF7E0BE0040074010B5044600F042F9EF
:100CB000FFF730FE0748844201D1312005E00648A5
:100CC000844201D1322000E03320BDE81040FFF71C
:100CD00095BF0000000004400040044010B50346EA
:100CE000002003E011F8014BDC61401C904202DA65
:100CF0009C686407F6D410BDF0B51546074600267B
:100D00000C4607E02A4621463846FFF7E7FF2D1A32
:100D100006440444002DF5DC3046F0BD70B50D46A8
:100D20000446FFF77FFE2901B0FBF1F1491E216265
:100D300070BD38B50D46044602E09DF80000E06144
:100D4000A068400705D56946284600F020F800282D
:100D5000F3D138BD002809DB00F01F0201219140CA
:100D60004009800000F1E020C0F800117047C0E9A0
:100D7000001300210161C0E9022101207047C16810
:100D80000069814201D1012070470020704770B591
:100D90000E4604460568FFF7F2FF08B1002070BD5B
:100DA00061682069491EA268084000FB0251304674
:100DB000FFF744FB2069401C2061012070BD00004A
:100DC0000B4810B50178491CC9B2017014290AD921
:100DD000002101701D2207490748FFF78DFF0749D1
:100DE0000220C1F8000306490120C1F8F40010BD3B
:100DF000000000028C160000000004400420001CCB
:100E00000080011C10B5154C2046FFF7A7FE1449C1
:100E1000206808432060134864210268B2FBF1F0A7
:100E2000401EC4F80001B2FBF1F0401EC4F80002FD
:100E30004FF0FF30C4F800034FF48050C4F80403AF
:100E4000D4F8F00040F00100C4F8F0001020FFF7E3
:100E500081FF606820F00400606010BD0080011C0C
:100E6000010002004000000210B5FFF7DDF900F0BC
:100E700037FB18B104494FF080500860BDE81040BE
:100E80000020FFF7D8B9000004ED00E010B5FFF72F
:100E9000A7FD0149086010BD40000002FFF72EBD0C
:100EA0000A4980230122A1F11400FFF760FF0749DE
:100EB000802380310122A1F1A800FFF758FF0349E8
:100EC00003482839FFF735FFFEE700006C000002F9
:100ED000000004400D4980230122A1F58A70FFF72C
:100EE00046FF0A49802380310122A1F5D470FFF723
:100EF0003EFF074C2A2207492046FFF7FDFE054921
:100F00002C222B312046FFF7F7FEF3E76C0100029D
:100F100000400440341600004FF4C040824201D922
:100F200000207047014A0A60704700007003000209
:100F300030BFFDE70549884201D13120704704499F
:100F4000884201D1322070473320704700000440AE
:100F5000004004407FB5FFF799FFFFF755FC0121E2
:100F60000020FFF775FC00F03FF800F0DFF80024E8
:100F70000125CDE900540294234680220EA1114898
:100F8000039400F0F7F9CDE9005402940023802285
:100F90000DA11048039400F0EDF9CDE9005402943E
:100FA000002380220CA10F48039400F0E3F900F025
:100FB0007BF904B0012070BD554152543154657322
:100FC00074000000D50E00005541525454657374EE
:100FD00000000000A10E000054696D657254657335
:100FE0007400000011110000144810B58021416305
:100FF00081648165C1658161C1610D22002112207A
:10100000FFF7CEFD122200211120FFF7C9FD1622A5
:1010100000210120FFF7C4FD002117220846FFF739
:10102000BFFD062200212320FFF7BAFD0722002181
:10103000BDE810402220FFF7B3BD000000800F4044
:1010400070B5124E124C1AE000F052F93068D0B16F
:1010500000F0A0FA00F0E6F8F068C568281D00F07E
:10106000B3F8A068401EA0606068401E606000F099
:10107000E7F8286B00F0EEF8284600F0EBF860681F
:101080000028E1D170BD00F085FAF8E748030002BE
:1010900004000002054C00BFFFF7D2FF20680128C2
:1010A00001D900F0F5F800F0A1F8F5E76C020002B4
:1010B0000648016B096829B1016BC968C9684968AC
:1010C000816270474FF0FF31FAE700000400000230
:1010D000FFF7AAF8FEE710B5044600F009F920462C
:1010E000FFF7CEF8044600F055FA204610BD000088
:1010F00010B5031F4FF080741C601B1F1960191F6F
:10110000024B0B60143940380A6010BDD11000004A
:101110003F20FFF7FFFB01231A4619464FF0E0502E
:10112000FFF7FCFCFFF76EFE30BFFDE72DE9F04155
:10113000224C2046FFF7B8FD214D2846FFF7B4FDAD
:10114000204E3046FFF7B0FD286820F07C0040F0CC
:10115000040028604FF4165739462846FFF7DEFD95
:10116000286840F001002860686820F0400068604E
:10117000206820F07C0040F00400206039462046C2
:10118000FFF7CCFD206840F001002060606820F08F
:1011900040006060306820F07C0040F00400306067
:1011A00039463046FFF7BAFD306840F00100306044
:1011B000706820F040007060BDE8F08100000440DD
:1011C0000040044000000C40D0E9013201699A60FF
:1011D000D0E901235A604A68824201D182684A609C
:1011E000002202610868401E0860704730BF7047E7
:1011F00000F108014FF0FF32C0E90112C160016146
:1012000000210160704700210161704742684A6017
:1012100093688B6093685960916008610168491C0C
:101220000160704710B5FEF7FFFF04480168491CD4
:101230000160BFF34F8FBFF36F8F10BD3C00000202
:1012400003490868401E086001D1FEF7F4BF7047EB
:101250003C00000210B5040008D000F049F8204618
:10126000FFF74EF8BDE8104000F094B910BD000043
:1012700006484FF47A710068B0FBF1F14FF0E020BE
:10128000491E4161072101617047000040000002D2
:1012900004494FF080500860BFF34F8FBFF36F8F4A
:1012A0007047000004ED00E01FB500240094019495
:1012B0000294234680220AA10B48039400F05AF8B6
:1012C00001280BD1FEF7B0FF0848611E81620121A1
:1012D0004161C460BDE81F4000F034B81FBD00008C
:1012E00049444C4500000000951000000400000235
:1012F0000248C16A491CC162704700000400000234
:101300000E48C16A11B10121C16170470021C1615C
:1013100001690B4AB1FA81F1C1F11F0101EB8101B1
:1013200002EB810101F108034A6852684A609A425F
:1013300001D152684A60D168016070470400000220
:101340006C020002094810B5016841F07871016033
:10135000016841F060410160FFF78AFF0449002005
:101360000860FEF72FFF002010BD000020ED00E018
:101370003C0000022DE9FF5F8A46DDE90F909100F5
:101380000E9F9B461546884610B90846FFF7A3FEF8
:10139000060018D06020FFF79EFE0400304610D0F3
:1013A000A52241462063FEF79AFF6FF0030101EB8F
:1013B0008501206B3D46084420F007085146002077
:1013C00004E0FFF747FF4FF0FF3481E022180B5C89
:1013D00082F834300A5C12B1401C1428F6D300267F
:1013E00084F84760082D00D30725E562C4E9145648
:1013F000201DFFF708FF04F11800FFF704FF246128
:10140000C5F108016462A161A66584F85C605A4672
:1014100040460099FFF76CFE2060B9F1000F01D043
:10142000C9F80040FFF7FEFE2B4DA868401CA860DD
:101430002868DFF8A88010B1686940B32CE02C6000
:10144000A868012828D1002606EB860108EB810058
:10145000FFF7CEFE761C082EF6D32048A030FFF70B
:10146000C7FE1E48B430FFF7C3FE1C48C830FFF764
:10147000BFFE1A48DC30FFF7BBFE1848F030FFF71C
:10148000B7FE1648A03028631430686304E028686B
:10149000C06AB84200D82C60686A0121401C6862AA
:1014A000A064E06A2A6981401143296100EB800150
:1014B00008EB8100211DFFF7A9FE0124FFF7C0FE04
:1014C000686928B12868C06AB84201D2FFF7E0FE17
:1014D00004B02046BDE8F09F040000026C02000248
:1014E0002DE9F041294C0026E06A40B1A069401C7A
:1014F000A061E06900B101263046BDE8F081E068F6
:10150000401CE060E76847B9206B616B2163606352
:10151000206A401C2062FFF7CBFDA06ADFF87080D4
:10152000874209D3206B006880B1206BC068C56812
:10153000686887420DD2A0622068C06A00EB800113
:1015400058F821000128D4D90126D2E74FF0FF3006
:10155000F1E7281DFFF738FEA86A18B105F1180059
:10156000FFF732FEE86A01212269814011432161BF
:1015700000EB800108EB8100291DFFF747FEE86AB8
:101580002168C96A8842CDD30126CBE70400000256
:101590006C0200022DE9F0470027FFF743FE234CC1
:1015A000E06A401EE062E06A98BBA168204E01201C
:1015B00079B3A6F1C80980463068E8B1F068C5681B
:1015C00005F11800FFF700FE281DFFF7FDFDE96A91
:1015D000226908FA01F01043206101EB810109EB57
:1015E0008100291DFFF712FEE86A2168C96A884256
:1015F000E2D3C4F81C80DFE7A06958B14546A06972
:1016000040B1FFF76DFF00B1E561A069401EA06128
:10161000F5E705E0E069012802D10127FFF738FE70
:10162000FFF70EFE3846BDE8F08700000400000218
:10163000340300024C5043313578782055415254E0
:1016400031206578616D706C65207573696E6720F7
:1016500072696E6720627566666572730D0A005066
:10166000726573732061206B657920746F206563E8
:10167000686F206974206261636B206F722045532C
:101680004320746F20717569740D0A00696E74656A
:1016900072727570742062617365642074696D651F
:1016A00072207469636B200D0A000000001BB700F4
:1016B0000080000019030100000101010101010483
:1016C000060807050102040810000000705A0168AE
:1016D00000900000001980000003800001018000DC
:1016E00000028000001E80000011800000198000B0
:1016F000010180000017800000168000000B8000B0
:10170000001F80000103000000040000000500002D
:10171000000700000008000000090000000A0000A7
:10172000010480000105800001068000010780009F
:1017300001088000000D800000128000000B800076
:10174000001F8000010B88006817000000000002E5
:101750004400000038010000AC1700004400000203
:101760008C66000054010000000000000000000032
:101770000000000000000000000000000000000069
:101780000000000000000000000000000000000059
:101790000000000000000000000000000000000049
:0C17A00000000000AAAAAAAA0000000095
:04000005000000FDFA
:00000001FF
